{
  "_format": "hh-sol-artifact-1",
  "contractName": "Upload",
  "sourceName": "contracts/Upload.sol",
  "abi": [
    {
      "inputs": [],
      "stateMutability": "nonpayable",
      "type": "constructor"
    },
    {
      "anonymous": false,
      "inputs": [
        {
          "indexed": true,
          "internalType": "address",
          "name": "owner",
          "type": "address"
        },
        {
          "indexed": true,
          "internalType": "address",
          "name": "approved",
          "type": "address"
        },
        {
          "indexed": true,
          "internalType": "uint256",
          "name": "tokenId",
          "type": "uint256"
        }
      ],
      "name": "Approval",
      "type": "event"
    },
    {
      "anonymous": false,
      "inputs": [
        {
          "indexed": true,
          "internalType": "address",
          "name": "owner",
          "type": "address"
        },
        {
          "indexed": true,
          "internalType": "address",
          "name": "operator",
          "type": "address"
        },
        {
          "indexed": false,
          "internalType": "bool",
          "name": "approved",
          "type": "bool"
        }
      ],
      "name": "ApprovalForAll",
      "type": "event"
    },
    {
      "anonymous": false,
      "inputs": [
        {
          "indexed": true,
          "internalType": "address",
          "name": "from",
          "type": "address"
        },
        {
          "indexed": true,
          "internalType": "address",
          "name": "to",
          "type": "address"
        },
        {
          "indexed": true,
          "internalType": "uint256",
          "name": "tokenId",
          "type": "uint256"
        }
      ],
      "name": "Transfer",
      "type": "event"
    },
    {
      "inputs": [],
      "name": "_tokenIds",
      "outputs": [
        {
          "internalType": "uint256",
          "name": "_value",
          "type": "uint256"
        }
      ],
      "stateMutability": "view",
      "type": "function"
    },
    {
      "inputs": [
        {
          "internalType": "string",
          "name": "tokenURI",
          "type": "string"
        },
        {
          "internalType": "address",
          "name": "_reciever",
          "type": "address"
        },
        {
          "internalType": "address",
          "name": "_org",
          "type": "address"
        },
        {
          "internalType": "address",
          "name": "_user",
          "type": "address"
        }
      ],
      "name": "additem",
      "outputs": [
        {
          "internalType": "uint256",
          "name": "",
          "type": "uint256"
        }
      ],
      "stateMutability": "nonpayable",
      "type": "function"
    },
    {
      "inputs": [
        {
          "internalType": "address",
          "name": "to",
          "type": "address"
        },
        {
          "internalType": "uint256",
          "name": "tokenId",
          "type": "uint256"
        }
      ],
      "name": "approve",
      "outputs": [],
      "stateMutability": "nonpayable",
      "type": "function"
    },
    {
      "inputs": [
        {
          "internalType": "address",
          "name": "owner",
          "type": "address"
        }
      ],
      "name": "balanceOf",
      "outputs": [
        {
          "internalType": "uint256",
          "name": "",
          "type": "uint256"
        }
      ],
      "stateMutability": "view",
      "type": "function"
    },
    {
      "inputs": [
        {
          "internalType": "uint256",
          "name": "tokenId",
          "type": "uint256"
        },
        {
          "internalType": "address",
          "name": "remove",
          "type": "address"
        }
      ],
      "name": "cancelAccess",
      "outputs": [],
      "stateMutability": "nonpayable",
      "type": "function"
    },
    {
      "inputs": [
        {
          "internalType": "address",
          "name": "",
          "type": "address"
        },
        {
          "internalType": "uint256",
          "name": "",
          "type": "uint256"
        }
      ],
      "name": "certiList",
      "outputs": [
        {
          "internalType": "uint256",
          "name": "",
          "type": "uint256"
        }
      ],
      "stateMutability": "view",
      "type": "function"
    },
    {
      "inputs": [
        {
          "internalType": "uint256",
          "name": "tokenId",
          "type": "uint256"
        }
      ],
      "name": "getApproved",
      "outputs": [
        {
          "internalType": "address",
          "name": "",
          "type": "address"
        }
      ],
      "stateMutability": "view",
      "type": "function"
    },
    {
      "inputs": [
        {
          "internalType": "address",
          "name": "_user",
          "type": "address"
        }
      ],
      "name": "getallCerti",
      "outputs": [
        {
          "components": [
            {
              "internalType": "uint256",
              "name": "tokenId",
              "type": "uint256"
            },
            {
              "internalType": "address",
              "name": "owner",
              "type": "address"
            },
            {
              "internalType": "address",
              "name": "organization",
              "type": "address"
            },
            {
              "internalType": "address",
              "name": "employee",
              "type": "address"
            },
            {
              "internalType": "address[]",
              "name": "accesslist",
              "type": "address[]"
            },
            {
              "internalType": "bool",
              "name": "active",
              "type": "bool"
            }
          ],
          "internalType": "struct Upload.certificate[]",
          "name": "",
          "type": "tuple[]"
        }
      ],
      "stateMutability": "view",
      "type": "function"
    },
    {
      "inputs": [
        {
          "internalType": "uint256",
          "name": "tokenId",
          "type": "uint256"
        },
        {
          "internalType": "address",
          "name": "adder",
          "type": "address"
        }
      ],
      "name": "giveAccess",
      "outputs": [],
      "stateMutability": "nonpayable",
      "type": "function"
    },
    {
      "inputs": [
        {
          "internalType": "address",
          "name": "owner",
          "type": "address"
        },
        {
          "internalType": "address",
          "name": "operator",
          "type": "address"
        }
      ],
      "name": "isApprovedForAll",
      "outputs": [
        {
          "internalType": "bool",
          "name": "",
          "type": "bool"
        }
      ],
      "stateMutability": "view",
      "type": "function"
    },
    {
      "inputs": [
        {
          "internalType": "uint256",
          "name": "",
          "type": "uint256"
        }
      ],
      "name": "items",
      "outputs": [
        {
          "internalType": "uint256",
          "name": "tokenId",
          "type": "uint256"
        },
        {
          "internalType": "address",
          "name": "owner",
          "type": "address"
        },
        {
          "internalType": "address",
          "name": "organization",
          "type": "address"
        },
        {
          "internalType": "address",
          "name": "employee",
          "type": "address"
        },
        {
          "internalType": "bool",
          "name": "active",
          "type": "bool"
        }
      ],
      "stateMutability": "view",
      "type": "function"
    },
    {
      "inputs": [],
      "name": "name",
      "outputs": [
        {
          "internalType": "string",
          "name": "",
          "type": "string"
        }
      ],
      "stateMutability": "view",
      "type": "function"
    },
    {
      "inputs": [
        {
          "internalType": "uint256",
          "name": "tokenId",
          "type": "uint256"
        }
      ],
      "name": "ownerOf",
      "outputs": [
        {
          "internalType": "address",
          "name": "",
          "type": "address"
        }
      ],
      "stateMutability": "view",
      "type": "function"
    },
    {
      "inputs": [
        {
          "internalType": "address",
          "name": "",
          "type": "address"
        },
        {
          "internalType": "uint256",
          "name": "",
          "type": "uint256"
        }
      ],
      "name": "ownership",
      "outputs": [
        {
          "internalType": "bool",
          "name": "",
          "type": "bool"
        }
      ],
      "stateMutability": "view",
      "type": "function"
    },
    {
      "inputs": [
        {
          "internalType": "uint256",
          "name": "tokenId",
          "type": "uint256"
        }
      ],
      "name": "revokeCerti",
      "outputs": [],
      "stateMutability": "nonpayable",
      "type": "function"
    },
    {
      "inputs": [
        {
          "internalType": "address",
          "name": "from",
          "type": "address"
        },
        {
          "internalType": "address",
          "name": "to",
          "type": "address"
        },
        {
          "internalType": "uint256",
          "name": "tokenId",
          "type": "uint256"
        }
      ],
      "name": "safeTransferFrom",
      "outputs": [],
      "stateMutability": "nonpayable",
      "type": "function"
    },
    {
      "inputs": [
        {
          "internalType": "address",
          "name": "from",
          "type": "address"
        },
        {
          "internalType": "address",
          "name": "to",
          "type": "address"
        },
        {
          "internalType": "uint256",
          "name": "tokenId",
          "type": "uint256"
        },
        {
          "internalType": "bytes",
          "name": "data",
          "type": "bytes"
        }
      ],
      "name": "safeTransferFrom",
      "outputs": [],
      "stateMutability": "nonpayable",
      "type": "function"
    },
    {
      "inputs": [
        {
          "internalType": "address",
          "name": "operator",
          "type": "address"
        },
        {
          "internalType": "bool",
          "name": "approved",
          "type": "bool"
        }
      ],
      "name": "setApprovalForAll",
      "outputs": [],
      "stateMutability": "nonpayable",
      "type": "function"
    },
    {
      "inputs": [
        {
          "internalType": "bytes4",
          "name": "interfaceId",
          "type": "bytes4"
        }
      ],
      "name": "supportsInterface",
      "outputs": [
        {
          "internalType": "bool",
          "name": "",
          "type": "bool"
        }
      ],
      "stateMutability": "view",
      "type": "function"
    },
    {
      "inputs": [],
      "name": "symbol",
      "outputs": [
        {
          "internalType": "string",
          "name": "",
          "type": "string"
        }
      ],
      "stateMutability": "view",
      "type": "function"
    },
    {
      "inputs": [
        {
          "internalType": "uint256",
          "name": "tokenId",
          "type": "uint256"
        }
      ],
      "name": "tokenURI",
      "outputs": [
        {
          "internalType": "string",
          "name": "",
          "type": "string"
        }
      ],
      "stateMutability": "view",
      "type": "function"
    },
    {
      "inputs": [],
      "name": "tokens",
      "outputs": [
        {
          "internalType": "uint256",
          "name": "",
          "type": "uint256"
        }
      ],
      "stateMutability": "view",
      "type": "function"
    },
    {
      "inputs": [
        {
          "internalType": "address",
          "name": "from",
          "type": "address"
        },
        {
          "internalType": "address",
          "name": "to",
          "type": "address"
        },
        {
          "internalType": "uint256",
          "name": "tokenId",
          "type": "uint256"
        }
      ],
      "name": "transferFrom",
      "outputs": [],
      "stateMutability": "nonpayable",
      "type": "function"
    },
    {
      "inputs": [
        {
          "internalType": "uint256",
          "name": "tokenId",
          "type": "uint256"
        }
      ],
      "name": "viewCerti",
      "outputs": [
        {
          "components": [
            {
              "internalType": "uint256",
              "name": "tokenId",
              "type": "uint256"
            },
            {
              "internalType": "address",
              "name": "owner",
              "type": "address"
            },
            {
              "internalType": "address",
              "name": "organization",
              "type": "address"
            },
            {
              "internalType": "address",
              "name": "employee",
              "type": "address"
            },
            {
              "internalType": "address[]",
              "name": "accesslist",
              "type": "address[]"
            },
            {
              "internalType": "bool",
              "name": "active",
              "type": "bool"
            }
          ],
          "internalType": "struct Upload.certificate[]",
          "name": "",
          "type": "tuple[]"
        }
      ],
      "stateMutability": "view",
      "type": "function"
    }
  ],
  "bytecode": "0x60806040523480156200001157600080fd5b506040518060400160405280600e81526020017f4e46544d61726b6574706c6163650000000000000000000000000000000000008152506040518060400160405280600481526020017f4e46544d00000000000000000000000000000000000000000000000000000000815250816000908051906020019062000096929190620000b8565b508060019080519060200190620000af929190620000b8565b505050620001cd565b828054620000c69062000197565b90600052602060002090601f016020900481019282620000ea576000855562000136565b82601f106200010557805160ff191683800117855562000136565b8280016001018555821562000136579182015b828111156200013557825182559160200191906001019062000118565b5b50905062000145919062000149565b5090565b5b80821115620001645760008160009055506001016200014a565b5090565b7f4e487b7100000000000000000000000000000000000000000000000000000000600052602260045260246000fd5b60006002820490506001821680620001b057607f821691505b60208210811415620001c757620001c662000168565b5b50919050565b613ef180620001dd6000396000f3fe608060405234801561001057600080fd5b50600436106101585760003560e01c80639a821c40116100c3578063bbfa20581161007c578063bbfa2058146103e9578063bfb231d214610405578063c87b56dd14610439578063e985e9c514610469578063ee9bfc8c14610499578063ef01c11c146104c957610158565b80639a821c40146103155780639d63848a14610345578063a22cb46514610363578063a543ed6d1461037f578063aa46a400146103af578063b88d4fde146103cd57610158565b806342842e0e1161011557806342842e0e1461022f5780634a91ef091461024b5780636352211e1461027b5780636c414d4d146102ab57806370a08231146102c757806395d89b41146102f757610158565b806301ffc9a71461015d57806306fdde031461018d578063081812fc146101ab578063095ea7b3146101db578063156677f8146101f757806323b872dd14610213575b600080fd5b61017760048036038101906101729190612bbe565b6104f9565b6040516101849190612c06565b60405180910390f35b6101956105db565b6040516101a29190612cba565b60405180910390f35b6101c560048036038101906101c09190612d12565b61066d565b6040516101d29190612d80565b60405180910390f35b6101f560048036038101906101f09190612dc7565b6106b3565b005b610211600480360381019061020c9190612e07565b6107cb565b005b61022d60048036038101906102289190612e47565b610838565b005b61024960048036038101906102449190612e47565b610898565b005b61026560048036038101906102609190612dc7565b6108b8565b6040516102729190612ea9565b60405180910390f35b61029560048036038101906102909190612d12565b6108e9565b6040516102a29190612d80565b60405180910390f35b6102c560048036038101906102c09190612d12565b61099b565b005b6102e160048036038101906102dc9190612ec4565b6109cd565b6040516102ee9190612ea9565b60405180910390f35b6102ff610a85565b60405161030c9190612cba565b60405180910390f35b61032f600480360381019061032a9190612ec4565b610b17565b60405161033c9190613118565b60405180910390f35b61034d610fff565b60405161035a9190612ea9565b60405180910390f35b61037d60048036038101906103789190613166565b611005565b005b61039960048036038101906103949190612d12565b61101b565b6040516103a69190613118565b60405180910390f35b6103b7611277565b6040516103c49190612ea9565b60405180910390f35b6103e760048036038101906103e291906132db565b611283565b005b61040360048036038101906103fe9190612e07565b6112e5565b005b61041f600480360381019061041a9190612d12565b61142f565b60405161043095949392919061335e565b60405180910390f35b610453600480360381019061044e9190612d12565b6114d2565b6040516104609190612cba565b60405180910390f35b610483600480360381019061047e91906133b1565b6115e5565b6040516104909190612c06565b60405180910390f35b6104b360048036038101906104ae9190612dc7565b611679565b6040516104c09190612c06565b60405180910390f35b6104e360048036038101906104de9190613492565b6116a8565b6040516104f09190612ea9565b60405180910390f35b60007f80ac58cd000000000000000000000000000000000000000000000000000000007bffffffffffffffffffffffffffffffffffffffffffffffffffffffff1916827bffffffffffffffffffffffffffffffffffffffffffffffffffffffff191614806105c457507f5b5e139f000000000000000000000000000000000000000000000000000000007bffffffffffffffffffffffffffffffffffffffffffffffffffffffff1916827bffffffffffffffffffffffffffffffffffffffffffffffffffffffff1916145b806105d457506105d382611c75565b5b9050919050565b6060600080546105ea90613544565b80601f016020809104026020016040519081016040528092919081815260200182805461061690613544565b80156106635780601f1061063857610100808354040283529160200191610663565b820191906000526020600020905b81548152906001019060200180831161064657829003601f168201915b5050505050905090565b600061067882611cdf565b6004600083815260200190815260200160002060009054906101000a900473ffffffffffffffffffffffffffffffffffffffff169050919050565b60006106be826108e9565b90508073ffffffffffffffffffffffffffffffffffffffff168373ffffffffffffffffffffffffffffffffffffffff16141561072f576040517f08c379a0000000000000000000000000000000000000000000000000000000008152600401610726906135e8565b60405180910390fd5b8073ffffffffffffffffffffffffffffffffffffffff1661074e611d2a565b73ffffffffffffffffffffffffffffffffffffffff16148061077d575061077c81610777611d2a565b6115e5565b5b6107bc576040517f08c379a00000000000000000000000000000000000000000000000000000000081526004016107b39061367a565b60405180910390fd5b6107c68383611d32565b505050565b6000600b60008373ffffffffffffffffffffffffffffffffffffffff1673ffffffffffffffffffffffffffffffffffffffff168152602001908152602001600020600084815260200190815260200160002060006101000a81548160ff0219169083151502179055505050565b610849610843611d2a565b82611deb565b610888576040517f08c379a000000000000000000000000000000000000000000000000000000000815260040161087f9061370c565b60405180910390fd5b610893838383611e80565b505050565b6108b383838360405180602001604052806000815250611283565b505050565b600a60205281600052604060002081815481106108d457600080fd5b90600052602060002001600091509150505481565b6000806002600084815260200190815260200160002060009054906101000a900473ffffffffffffffffffffffffffffffffffffffff169050600073ffffffffffffffffffffffffffffffffffffffff168173ffffffffffffffffffffffffffffffffffffffff161415610992576040517f08c379a000000000000000000000000000000000000000000000000000000000815260040161098990613778565b60405180910390fd5b80915050919050565b60006009600083815260200190815260200160002060050160006101000a81548160ff02191690831515021790555050565b60008073ffffffffffffffffffffffffffffffffffffffff168273ffffffffffffffffffffffffffffffffffffffff161415610a3e576040517f08c379a0000000000000000000000000000000000000000000000000000000008152600401610a359061380a565b60405180910390fd5b600360008373ffffffffffffffffffffffffffffffffffffffff1673ffffffffffffffffffffffffffffffffffffffff168152602001908152602001600020549050919050565b606060018054610a9490613544565b80601f0160208091040260200160405190810160405280929190818152602001828054610ac090613544565b8015610b0d5780601f10610ae257610100808354040283529160200191610b0d565b820191906000526020600020905b815481529060010190602001808311610af057829003601f168201915b5050505050905090565b6060600080600090505b600a60008573ffffffffffffffffffffffffffffffffffffffff1673ffffffffffffffffffffffffffffffffffffffff16815260200190815260200160002080549050811015610c52576000600a60008673ffffffffffffffffffffffffffffffffffffffff1673ffffffffffffffffffffffffffffffffffffffff1681526020019081526020016000208281548110610bbe57610bbd61382a565b5b90600052602060002001549050600b60008673ffffffffffffffffffffffffffffffffffffffff1673ffffffffffffffffffffffffffffffffffffffff168152602001908152602001600020600082815260200190815260200160002060009054906101000a900460ff1615610c3e57600183610c3b9190613888565b92505b508080610c4a906138de565b915050610b21565b5060008167ffffffffffffffff811115610c6f57610c6e6131b0565b5b604051908082528060200260200182016040528015610ca857816020015b610c956129ab565b815260200190600190039081610c8d5790505b509050600080600090505b600a60008773ffffffffffffffffffffffffffffffffffffffff1673ffffffffffffffffffffffffffffffffffffffff16815260200190815260200160002080549050811015610ff3576000600a60008873ffffffffffffffffffffffffffffffffffffffff1673ffffffffffffffffffffffffffffffffffffffff1681526020019081526020016000208281548110610d5057610d4f61382a565b5b90600052602060002001549050600b60008873ffffffffffffffffffffffffffffffffffffffff1673ffffffffffffffffffffffffffffffffffffffff168152602001908152602001600020600082815260200190815260200160002060009054906101000a900460ff1615610fdf5760006009600083815260200190815260200160002090508060050160009054906101000a900460ff1615610fdd57806040518060c0016040529081600082015481526020016001820160009054906101000a900473ffffffffffffffffffffffffffffffffffffffff1673ffffffffffffffffffffffffffffffffffffffff1673ffffffffffffffffffffffffffffffffffffffff1681526020016002820160009054906101000a900473ffffffffffffffffffffffffffffffffffffffff1673ffffffffffffffffffffffffffffffffffffffff1673ffffffffffffffffffffffffffffffffffffffff1681526020016003820160009054906101000a900473ffffffffffffffffffffffffffffffffffffffff1673ffffffffffffffffffffffffffffffffffffffff1673ffffffffffffffffffffffffffffffffffffffff16815260200160048201805480602002602001604051908101604052809291908181526020018280548015610f8b57602002820191906000526020600020905b8160009054906101000a900473ffffffffffffffffffffffffffffffffffffffff1673ffffffffffffffffffffffffffffffffffffffff1681526020019060010190808311610f41575b505050505081526020016005820160009054906101000a900460ff161515151581525050858581518110610fc257610fc161382a565b5b6020026020010181905250600184610fda9190613888565b93505b505b508080610feb906138de565b915050610cb3565b50819350505050919050565b60085481565b611017611010611d2a565b83836120e7565b5050565b60606000600167ffffffffffffffff81111561103a576110396131b0565b5b60405190808252806020026020018201604052801561107357816020015b6110606129ab565b8152602001906001900390816110585790505b5090506000600960008581526020019081526020016000209050806040518060c0016040529081600082015481526020016001820160009054906101000a900473ffffffffffffffffffffffffffffffffffffffff1673ffffffffffffffffffffffffffffffffffffffff1673ffffffffffffffffffffffffffffffffffffffff1681526020016002820160009054906101000a900473ffffffffffffffffffffffffffffffffffffffff1673ffffffffffffffffffffffffffffffffffffffff1673ffffffffffffffffffffffffffffffffffffffff1681526020016003820160009054906101000a900473ffffffffffffffffffffffffffffffffffffffff1673ffffffffffffffffffffffffffffffffffffffff1673ffffffffffffffffffffffffffffffffffffffff1681526020016004820180548060200260200160405190810160405280929190818152602001828054801561122a57602002820191906000526020600020905b8160009054906101000a900473ffffffffffffffffffffffffffffffffffffffff1673ffffffffffffffffffffffffffffffffffffffff16815260200190600101908083116111e0575b505050505081526020016005820160009054906101000a900460ff161515151581525050826000815181106112625761126161382a565b5b60200260200101819052508192505050919050565b60078060000154905081565b61129461128e611d2a565b83611deb565b6112d3576040517f08c379a00000000000000000000000000000000000000000000000000000000081526004016112ca9061370c565b60405180910390fd5b6112df84848484612254565b50505050565b60096000838152602001908152602001600020600401819080600181540180825580915050600190039060005260206000200160009091909190916101000a81548173ffffffffffffffffffffffffffffffffffffffff021916908373ffffffffffffffffffffffffffffffffffffffff160217905550600a60008273ffffffffffffffffffffffffffffffffffffffff1673ffffffffffffffffffffffffffffffffffffffff1681526020019081526020016000208290806001815401808255809150506001900390600052602060002001600090919091909150556001600b60008373ffffffffffffffffffffffffffffffffffffffff1673ffffffffffffffffffffffffffffffffffffffff168152602001908152602001600020600084815260200190815260200160002060006101000a81548160ff0219169083151502179055505050565b60096020528060005260406000206000915090508060000154908060010160009054906101000a900473ffffffffffffffffffffffffffffffffffffffff16908060020160009054906101000a900473ffffffffffffffffffffffffffffffffffffffff16908060030160009054906101000a900473ffffffffffffffffffffffffffffffffffffffff16908060050160009054906101000a900460ff16905085565b60606114dd82611cdf565b60006006600084815260200190815260200160002080546114fd90613544565b80601f016020809104026020016040519081016040528092919081815260200182805461152990613544565b80156115765780601f1061154b57610100808354040283529160200191611576565b820191906000526020600020905b81548152906001019060200180831161155957829003601f168201915b5050505050905060006115876122b0565b905060008151141561159d5781925050506115e0565b6000825111156115d25780826040516020016115ba929190613963565b604051602081830303815290604052925050506115e0565b6115db846122c7565b925050505b919050565b6000600560008473ffffffffffffffffffffffffffffffffffffffff1673ffffffffffffffffffffffffffffffffffffffff16815260200190815260200160002060008373ffffffffffffffffffffffffffffffffffffffff1673ffffffffffffffffffffffffffffffffffffffff16815260200190815260200160002060009054906101000a900460ff16905092915050565b600b6020528160005260406000206020528060005260406000206000915091509054906101000a900460ff1681565b60006001600860008282546116bd9190613888565b925050819055506116ce600761232f565b60006116da6007612345565b90506116e68382612353565b6116f08187612371565b60606040518060c001604052808381526020018773ffffffffffffffffffffffffffffffffffffffff1681526020018673ffffffffffffffffffffffffffffffffffffffff1681526020018573ffffffffffffffffffffffffffffffffffffffff16815260200182815260200160011515815250600960008481526020019081526020016000206000820151816000015560208201518160010160006101000a81548173ffffffffffffffffffffffffffffffffffffffff021916908373ffffffffffffffffffffffffffffffffffffffff16021790555060408201518160020160006101000a81548173ffffffffffffffffffffffffffffffffffffffff021916908373ffffffffffffffffffffffffffffffffffffffff16021790555060608201518160030160006101000a81548173ffffffffffffffffffffffffffffffffffffffff021916908373ffffffffffffffffffffffffffffffffffffffff1602179055506080820151816004019080519060200190611872929190612a25565b5060a08201518160050160006101000a81548160ff02191690831515021790555090505060096000838152602001908152602001600020600401869080600181540180825580915050600190039060005260206000200160009091909190916101000a81548173ffffffffffffffffffffffffffffffffffffffff021916908373ffffffffffffffffffffffffffffffffffffffff16021790555060096000838152602001908152602001600020600401859080600181540180825580915050600190039060005260206000200160009091909190916101000a81548173ffffffffffffffffffffffffffffffffffffffff021916908373ffffffffffffffffffffffffffffffffffffffff16021790555060096000838152602001908152602001600020600401849080600181540180825580915050600190039060005260206000200160009091909190916101000a81548173ffffffffffffffffffffffffffffffffffffffff021916908373ffffffffffffffffffffffffffffffffffffffff160217905550600a60008773ffffffffffffffffffffffffffffffffffffffff1673ffffffffffffffffffffffffffffffffffffffff168152602001908152602001600020829080600181540180825580915050600190039060005260206000200160009091909190915055600a60008673ffffffffffffffffffffffffffffffffffffffff1673ffffffffffffffffffffffffffffffffffffffff168152602001908152602001600020829080600181540180825580915050600190039060005260206000200160009091909190915055600a60008573ffffffffffffffffffffffffffffffffffffffff1673ffffffffffffffffffffffffffffffffffffffff1681526020019081526020016000208290806001815401808255809150506001900390600052602060002001600090919091909150556001600b60008873ffffffffffffffffffffffffffffffffffffffff1673ffffffffffffffffffffffffffffffffffffffff168152602001908152602001600020600084815260200190815260200160002060006101000a81548160ff0219169083151502179055506001600b60008773ffffffffffffffffffffffffffffffffffffffff1673ffffffffffffffffffffffffffffffffffffffff168152602001908152602001600020600084815260200190815260200160002060006101000a81548160ff0219169083151502179055506001600b60008673ffffffffffffffffffffffffffffffffffffffff1673ffffffffffffffffffffffffffffffffffffffff168152602001908152602001600020600084815260200190815260200160002060006101000a81548160ff0219169083151502179055508192505050949350505050565b60007f01ffc9a7000000000000000000000000000000000000000000000000000000007bffffffffffffffffffffffffffffffffffffffffffffffffffffffff1916827bffffffffffffffffffffffffffffffffffffffffffffffffffffffff1916149050919050565b611ce8816123e5565b611d27576040517f08c379a0000000000000000000000000000000000000000000000000000000008152600401611d1e90613778565b60405180910390fd5b50565b600033905090565b816004600083815260200190815260200160002060006101000a81548173ffffffffffffffffffffffffffffffffffffffff021916908373ffffffffffffffffffffffffffffffffffffffff160217905550808273ffffffffffffffffffffffffffffffffffffffff16611da5836108e9565b73ffffffffffffffffffffffffffffffffffffffff167f8c5be1e5ebec7d5bd14f71427d1e84f3dd0314c0f7b2291e5b200ac8c7c3b92560405160405180910390a45050565b600080611df7836108e9565b90508073ffffffffffffffffffffffffffffffffffffffff168473ffffffffffffffffffffffffffffffffffffffff161480611e395750611e3881856115e5565b5b80611e7757508373ffffffffffffffffffffffffffffffffffffffff16611e5f8461066d565b73ffffffffffffffffffffffffffffffffffffffff16145b91505092915050565b8273ffffffffffffffffffffffffffffffffffffffff16611ea0826108e9565b73ffffffffffffffffffffffffffffffffffffffff1614611ef6576040517f08c379a0000000000000000000000000000000000000000000000000000000008152600401611eed906139f9565b60405180910390fd5b600073ffffffffffffffffffffffffffffffffffffffff168273ffffffffffffffffffffffffffffffffffffffff161415611f66576040517f08c379a0000000000000000000000000000000000000000000000000000000008152600401611f5d90613a8b565b60405180910390fd5b611f71838383612451565b611f7c600082611d32565b6001600360008573ffffffffffffffffffffffffffffffffffffffff1673ffffffffffffffffffffffffffffffffffffffff1681526020019081526020016000206000828254611fcc9190613aab565b925050819055506001600360008473ffffffffffffffffffffffffffffffffffffffff1673ffffffffffffffffffffffffffffffffffffffff16815260200190815260200160002060008282546120239190613888565b92505081905550816002600083815260200190815260200160002060006101000a81548173ffffffffffffffffffffffffffffffffffffffff021916908373ffffffffffffffffffffffffffffffffffffffff160217905550808273ffffffffffffffffffffffffffffffffffffffff168473ffffffffffffffffffffffffffffffffffffffff167fddf252ad1be2c89b69c2b068fc378daa952ba7f163c4a11628f55a4df523b3ef60405160405180910390a46120e2838383612456565b505050565b8173ffffffffffffffffffffffffffffffffffffffff168373ffffffffffffffffffffffffffffffffffffffff161415612156576040517f08c379a000000000000000000000000000000000000000000000000000000000815260040161214d90613b2b565b60405180910390fd5b80600560008573ffffffffffffffffffffffffffffffffffffffff1673ffffffffffffffffffffffffffffffffffffffff16815260200190815260200160002060008473ffffffffffffffffffffffffffffffffffffffff1673ffffffffffffffffffffffffffffffffffffffff16815260200190815260200160002060006101000a81548160ff0219169083151502179055508173ffffffffffffffffffffffffffffffffffffffff168373ffffffffffffffffffffffffffffffffffffffff167f17307eab39ab6107e8899845ad3d59bd9653f200f220920489ca2b5937696c31836040516122479190612c06565b60405180910390a3505050565b61225f848484611e80565b61226b8484848461245b565b6122aa576040517f08c379a00000000000000000000000000000000000000000000000000000000081526004016122a190613bbd565b60405180910390fd5b50505050565b606060405180602001604052806000815250905090565b60606122d282611cdf565b60006122dc6122b0565b905060008151116122fc5760405180602001604052806000815250612327565b80612306846125f2565b604051602001612317929190613963565b6040516020818303038152906040525b915050919050565b6001816000016000828254019250508190555050565b600081600001549050919050565b61236d828260405180602001604052806000815250612753565b5050565b61237a826123e5565b6123b9576040517f08c379a00000000000000000000000000000000000000000000000000000000081526004016123b090613c4f565b60405180910390fd5b806006600084815260200190815260200160002090805190602001906123e0929190612aaf565b505050565b60008073ffffffffffffffffffffffffffffffffffffffff166002600084815260200190815260200160002060009054906101000a900473ffffffffffffffffffffffffffffffffffffffff1673ffffffffffffffffffffffffffffffffffffffff1614159050919050565b505050565b505050565b600061247c8473ffffffffffffffffffffffffffffffffffffffff166127ae565b156125e5578373ffffffffffffffffffffffffffffffffffffffff1663150b7a026124a5611d2a565b8786866040518563ffffffff1660e01b81526004016124c79493929190613cc4565b602060405180830381600087803b1580156124e157600080fd5b505af192505050801561251257506040513d601f19601f8201168201806040525081019061250f9190613d25565b60015b612595573d8060008114612542576040519150601f19603f3d011682016040523d82523d6000602084013e612547565b606091505b5060008151141561258d576040517f08c379a000000000000000000000000000000000000000000000000000000000815260040161258490613bbd565b60405180910390fd5b805181602001fd5b63150b7a0260e01b7bffffffffffffffffffffffffffffffffffffffffffffffffffffffff1916817bffffffffffffffffffffffffffffffffffffffffffffffffffffffff1916149150506125ea565b600190505b949350505050565b6060600082141561263a576040518060400160405280600181526020017f3000000000000000000000000000000000000000000000000000000000000000815250905061274e565b600082905060005b6000821461266c578080612655906138de565b915050600a826126659190613d81565b9150612642565b60008167ffffffffffffffff811115612688576126876131b0565b5b6040519080825280601f01601f1916602001820160405280156126ba5781602001600182028036833780820191505090505b5090505b60008514612747576001826126d39190613aab565b9150600a856126e29190613db2565b60306126ee9190613888565b60f81b8183815181106127045761270361382a565b5b60200101907effffffffffffffffffffffffffffffffffffffffffffffffffffffffffffff1916908160001a905350600a856127409190613d81565b94506126be565b8093505050505b919050565b61275d83836127d1565b61276a600084848461245b565b6127a9576040517f08c379a00000000000000000000000000000000000000000000000000000000081526004016127a090613bbd565b60405180910390fd5b505050565b6000808273ffffffffffffffffffffffffffffffffffffffff163b119050919050565b600073ffffffffffffffffffffffffffffffffffffffff168273ffffffffffffffffffffffffffffffffffffffff161415612841576040517f08c379a000000000000000000000000000000000000000000000000000000000815260040161283890613e2f565b60405180910390fd5b61284a816123e5565b1561288a576040517f08c379a000000000000000000000000000000000000000000000000000000000815260040161288190613e9b565b60405180910390fd5b61289660008383612451565b6001600360008473ffffffffffffffffffffffffffffffffffffffff1673ffffffffffffffffffffffffffffffffffffffff16815260200190815260200160002060008282546128e69190613888565b92505081905550816002600083815260200190815260200160002060006101000a81548173ffffffffffffffffffffffffffffffffffffffff021916908373ffffffffffffffffffffffffffffffffffffffff160217905550808273ffffffffffffffffffffffffffffffffffffffff16600073ffffffffffffffffffffffffffffffffffffffff167fddf252ad1be2c89b69c2b068fc378daa952ba7f163c4a11628f55a4df523b3ef60405160405180910390a46129a760008383612456565b5050565b6040518060c0016040528060008152602001600073ffffffffffffffffffffffffffffffffffffffff168152602001600073ffffffffffffffffffffffffffffffffffffffff168152602001600073ffffffffffffffffffffffffffffffffffffffff168152602001606081526020016000151581525090565b828054828255906000526020600020908101928215612a9e579160200282015b82811115612a9d5782518260006101000a81548173ffffffffffffffffffffffffffffffffffffffff021916908373ffffffffffffffffffffffffffffffffffffffff16021790555091602001919060010190612a45565b5b509050612aab9190612b35565b5090565b828054612abb90613544565b90600052602060002090601f016020900481019282612add5760008555612b24565b82601f10612af657805160ff1916838001178555612b24565b82800160010185558215612b24579182015b82811115612b23578251825591602001919060010190612b08565b5b509050612b319190612b35565b5090565b5b80821115612b4e576000816000905550600101612b36565b5090565b6000604051905090565b600080fd5b600080fd5b60007fffffffff0000000000000000000000000000000000000000000000000000000082169050919050565b612b9b81612b66565b8114612ba657600080fd5b50565b600081359050612bb881612b92565b92915050565b600060208284031215612bd457612bd3612b5c565b5b6000612be284828501612ba9565b91505092915050565b60008115159050919050565b612c0081612beb565b82525050565b6000602082019050612c1b6000830184612bf7565b92915050565b600081519050919050565b600082825260208201905092915050565b60005b83811015612c5b578082015181840152602081019050612c40565b83811115612c6a576000848401525b50505050565b6000601f19601f8301169050919050565b6000612c8c82612c21565b612c968185612c2c565b9350612ca6818560208601612c3d565b612caf81612c70565b840191505092915050565b60006020820190508181036000830152612cd48184612c81565b905092915050565b6000819050919050565b612cef81612cdc565b8114612cfa57600080fd5b50565b600081359050612d0c81612ce6565b92915050565b600060208284031215612d2857612d27612b5c565b5b6000612d3684828501612cfd565b91505092915050565b600073ffffffffffffffffffffffffffffffffffffffff82169050919050565b6000612d6a82612d3f565b9050919050565b612d7a81612d5f565b82525050565b6000602082019050612d956000830184612d71565b92915050565b612da481612d5f565b8114612daf57600080fd5b50565b600081359050612dc181612d9b565b92915050565b60008060408385031215612dde57612ddd612b5c565b5b6000612dec85828601612db2565b9250506020612dfd85828601612cfd565b9150509250929050565b60008060408385031215612e1e57612e1d612b5c565b5b6000612e2c85828601612cfd565b9250506020612e3d85828601612db2565b9150509250929050565b600080600060608486031215612e6057612e5f612b5c565b5b6000612e6e86828701612db2565b9350506020612e7f86828701612db2565b9250506040612e9086828701612cfd565b9150509250925092565b612ea381612cdc565b82525050565b6000602082019050612ebe6000830184612e9a565b92915050565b600060208284031215612eda57612ed9612b5c565b5b6000612ee884828501612db2565b91505092915050565b600081519050919050565b600082825260208201905092915050565b6000819050602082019050919050565b612f2681612cdc565b82525050565b612f3581612d5f565b82525050565b600081519050919050565b600082825260208201905092915050565b6000819050602082019050919050565b6000612f738383612f2c565b60208301905092915050565b6000602082019050919050565b6000612f9782612f3b565b612fa18185612f46565b9350612fac83612f57565b8060005b83811015612fdd578151612fc48882612f67565b9750612fcf83612f7f565b925050600181019050612fb0565b5085935050505092915050565b612ff381612beb565b82525050565b600060c0830160008301516130116000860182612f1d565b5060208301516130246020860182612f2c565b5060408301516130376040860182612f2c565b50606083015161304a6060860182612f2c565b50608083015184820360808601526130628282612f8c565b91505060a083015161307760a0860182612fea565b508091505092915050565b600061308e8383612ff9565b905092915050565b6000602082019050919050565b60006130ae82612ef1565b6130b88185612efc565b9350836020820285016130ca85612f0d565b8060005b8581101561310657848403895281516130e78582613082565b94506130f283613096565b925060208a019950506001810190506130ce565b50829750879550505050505092915050565b6000602082019050818103600083015261313281846130a3565b905092915050565b61314381612beb565b811461314e57600080fd5b50565b6000813590506131608161313a565b92915050565b6000806040838503121561317d5761317c612b5c565b5b600061318b85828601612db2565b925050602061319c85828601613151565b9150509250929050565b600080fd5b600080fd5b7f4e487b7100000000000000000000000000000000000000000000000000000000600052604160045260246000fd5b6131e882612c70565b810181811067ffffffffffffffff82111715613207576132066131b0565b5b80604052505050565b600061321a612b52565b905061322682826131df565b919050565b600067ffffffffffffffff821115613246576132456131b0565b5b61324f82612c70565b9050602081019050919050565b82818337600083830152505050565b600061327e6132798461322b565b613210565b90508281526020810184848401111561329a576132996131ab565b5b6132a584828561325c565b509392505050565b600082601f8301126132c2576132c16131a6565b5b81356132d284826020860161326b565b91505092915050565b600080600080608085870312156132f5576132f4612b5c565b5b600061330387828801612db2565b945050602061331487828801612db2565b935050604061332587828801612cfd565b925050606085013567ffffffffffffffff81111561334657613345612b61565b5b613352878288016132ad565b91505092959194509250565b600060a0820190506133736000830188612e9a565b6133806020830187612d71565b61338d6040830186612d71565b61339a6060830185612d71565b6133a76080830184612bf7565b9695505050505050565b600080604083850312156133c8576133c7612b5c565b5b60006133d685828601612db2565b92505060206133e785828601612db2565b9150509250929050565b600067ffffffffffffffff82111561340c5761340b6131b0565b5b61341582612c70565b9050602081019050919050565b6000613435613430846133f1565b613210565b905082815260208101848484011115613451576134506131ab565b5b61345c84828561325c565b509392505050565b600082601f830112613479576134786131a6565b5b8135613489848260208601613422565b91505092915050565b600080600080608085870312156134ac576134ab612b5c565b5b600085013567ffffffffffffffff8111156134ca576134c9612b61565b5b6134d687828801613464565b94505060206134e787828801612db2565b93505060406134f887828801612db2565b925050606061350987828801612db2565b91505092959194509250565b7f4e487b7100000000000000000000000000000000000000000000000000000000600052602260045260246000fd5b6000600282049050600182168061355c57607f821691505b602082108114156135705761356f613515565b5b50919050565b7f4552433732313a20617070726f76616c20746f2063757272656e74206f776e6560008201527f7200000000000000000000000000000000000000000000000000000000000000602082015250565b60006135d2602183612c2c565b91506135dd82613576565b604082019050919050565b60006020820190508181036000830152613601816135c5565b9050919050565b7f4552433732313a20617070726f76652063616c6c6572206973206e6f7420746f60008201527f6b656e206f776e6572206e6f7220617070726f76656420666f7220616c6c0000602082015250565b6000613664603e83612c2c565b915061366f82613608565b604082019050919050565b6000602082019050818103600083015261369381613657565b9050919050565b7f4552433732313a2063616c6c6572206973206e6f7420746f6b656e206f776e6560008201527f72206e6f7220617070726f766564000000000000000000000000000000000000602082015250565b60006136f6602e83612c2c565b91506137018261369a565b604082019050919050565b60006020820190508181036000830152613725816136e9565b9050919050565b7f4552433732313a20696e76616c696420746f6b656e2049440000000000000000600082015250565b6000613762601883612c2c565b915061376d8261372c565b602082019050919050565b6000602082019050818103600083015261379181613755565b9050919050565b7f4552433732313a2061646472657373207a65726f206973206e6f74206120766160008201527f6c6964206f776e65720000000000000000000000000000000000000000000000602082015250565b60006137f4602983612c2c565b91506137ff82613798565b604082019050919050565b60006020820190508181036000830152613823816137e7565b9050919050565b7f4e487b7100000000000000000000000000000000000000000000000000000000600052603260045260246000fd5b7f4e487b7100000000000000000000000000000000000000000000000000000000600052601160045260246000fd5b600061389382612cdc565b915061389e83612cdc565b9250827fffffffffffffffffffffffffffffffffffffffffffffffffffffffffffffffff038211156138d3576138d2613859565b5b828201905092915050565b60006138e982612cdc565b91507fffffffffffffffffffffffffffffffffffffffffffffffffffffffffffffffff82141561391c5761391b613859565b5b600182019050919050565b600081905092915050565b600061393d82612c21565b6139478185613927565b9350613957818560208601612c3d565b80840191505092915050565b600061396f8285613932565b915061397b8284613932565b91508190509392505050565b7f4552433732313a207472616e736665722066726f6d20696e636f72726563742060008201527f6f776e6572000000000000000000000000000000000000000000000000000000602082015250565b60006139e3602583612c2c565b91506139ee82613987565b604082019050919050565b60006020820190508181036000830152613a12816139d6565b9050919050565b7f4552433732313a207472616e7366657220746f20746865207a65726f2061646460008201527f7265737300000000000000000000000000000000000000000000000000000000602082015250565b6000613a75602483612c2c565b9150613a8082613a19565b604082019050919050565b60006020820190508181036000830152613aa481613a68565b9050919050565b6000613ab682612cdc565b9150613ac183612cdc565b925082821015613ad457613ad3613859565b5b828203905092915050565b7f4552433732313a20617070726f766520746f2063616c6c657200000000000000600082015250565b6000613b15601983612c2c565b9150613b2082613adf565b602082019050919050565b60006020820190508181036000830152613b4481613b08565b9050919050565b7f4552433732313a207472616e7366657220746f206e6f6e20455243373231526560008201527f63656976657220696d706c656d656e7465720000000000000000000000000000602082015250565b6000613ba7603283612c2c565b9150613bb282613b4b565b604082019050919050565b60006020820190508181036000830152613bd681613b9a565b9050919050565b7f45524337323155524953746f726167653a2055524920736574206f66206e6f6e60008201527f6578697374656e7420746f6b656e000000000000000000000000000000000000602082015250565b6000613c39602e83612c2c565b9150613c4482613bdd565b604082019050919050565b60006020820190508181036000830152613c6881613c2c565b9050919050565b600081519050919050565b600082825260208201905092915050565b6000613c9682613c6f565b613ca08185613c7a565b9350613cb0818560208601612c3d565b613cb981612c70565b840191505092915050565b6000608082019050613cd96000830187612d71565b613ce66020830186612d71565b613cf36040830185612e9a565b8181036060830152613d058184613c8b565b905095945050505050565b600081519050613d1f81612b92565b92915050565b600060208284031215613d3b57613d3a612b5c565b5b6000613d4984828501613d10565b91505092915050565b7f4e487b7100000000000000000000000000000000000000000000000000000000600052601260045260246000fd5b6000613d8c82612cdc565b9150613d9783612cdc565b925082613da757613da6613d52565b5b828204905092915050565b6000613dbd82612cdc565b9150613dc883612cdc565b925082613dd857613dd7613d52565b5b828206905092915050565b7f4552433732313a206d696e7420746f20746865207a65726f2061646472657373600082015250565b6000613e19602083612c2c565b9150613e2482613de3565b602082019050919050565b60006020820190508181036000830152613e4881613e0c565b9050919050565b7f4552433732313a20746f6b656e20616c7265616479206d696e74656400000000600082015250565b6000613e85601c83612c2c565b9150613e9082613e4f565b602082019050919050565b60006020820190508181036000830152613eb481613e78565b905091905056fea2646970667358221220ffcadb38cfe3c0174462651f51654e0dde3546ba328fa34bc776d8e8f8a239f164736f6c63430008090033",
  "linkReferences": {},
  "deployedLinkReferences": {}
}